:100000000C9460000C9428020C947D000C947D00EC
:100010000C947D000C947D000C947D000C947D006C
:100020000C947D000C947D000C947D000C947D005C
:100030000C947D000C947D000C947D000C947D004C
:100040000C947D000C947D000C947D000C947D003C
:100050000C947D000C947D000C947D000C947D002C
:100060000C947D000C947D000C947D000C947D001C
:100070000C947D000C947D000C947D000C947D000C
:100080000C947D000C947D000C947D000C947D00FC
:100090000C947D000C947D000C947D000C947D00EC
:1000A0000C947D000C947D000C947D000C947D00DC
:1000B0000C947D006364696E6F70737578585B0093
:1000C00011241FBECFEFD8E0DEBFCDBF11E0A0E00E
:1000D000B1E0ECE6F4E102C005900D92AE3AB10752
:1000E000D9F721E0AEEAB1E001C01D92AC3BB20706
:1000F000E1F70E945B020C94340A0C94000080EE3D
:100100008AB98BB1806E8BB908959BB1282F209549
:1001100092239BB92FEF31EE94E021503040904074
:10012000E1F700C000009BB1892B8BB92FEF31EEB6
:1001300084E0215030408040E1F700C00000089585
:100140000E947F0080E890E00E948500FBCF0F9323
:100150001F93CF93DF938C01EB01FC0101900020F2
:10016000E9F73197CF01801B910B01960E94A702FE
:100170009093B1018093B001B8010E94C803FE01C1
:1001800001900020E9F73197CF018C1B9D0B019660
:100190000E94A7029093AF018093AE01BE010E941E
:1001A000C8038AB188618AB98BB180618BB9DF914C
:1001B000CF911F910F9108950F931F93CF93DF93CA
:1001C000CDB7DEB7C054D1090FB6F894DEBF0FBE6D
:1001D000CDBF8E010F5F1F4F1F930F9382E291E0FF
:1001E0009F938F930E94190465E271E0C8010E94F9
:1001F000CF030F900F900F900F90892B49F46BE273
:1002000071E0C8010E94CF03892B19F380E001C07F
:100210008FEFC05CDF4F0FB6F894DEBF0FBECDBFCF
:10022000DF91CF911F910F9108958823E1F08BB159
:1002300088608BB98BB18F7E8BB92FEF83ED90E304
:10024000215080409040E1F700C000008BB18061F8
:100250008BB92FEF83ED90E3215080409040E1F780
:1002600000C0000003C08BB1877F8BB92FEF87EAF6
:1002700091E6215080409040E1F700C000000895D1
:10028000CF93DF93EC01CE010E94E9030E94DC00D2
:100290008111F9CFDF91CF910895CF93DF93CDB73F
:1002A000DEB7C058D1090FB6F894DEBF0FBECDBF80
:1002B000FB011A821982BE016D5F7F4F2EE7DB01C1
:1002C0001D922A95E9F74230510501F124F441309D
:1002D000510549F069C04330510571F14430510571
:1002E00009F444C061C021812F9320812F939F93F3
:1002F0008F93CE0101969F938F930E942F040F90AE
:100300000F900F900F900F900F9050C023812F935C
:1003100022812F9321812F9320812F939F938F935D
:10032000CE0101969F938F930E942F040FB6F894ED
:10033000DEBF0FBECDBF3AC025812F9324812F93FE
:1003400023812F9322812F9321812F9320812F931B
:100350009F938F93CE0101969F938F930E942F04BA
:100360000FB6F894DEBF0FBECDBF20C027812F93FC
:1003700026812F9325812F9324812F9323812F93DF
:1003800022812F9321812F9320812F939F938F93ED
:10039000CE0101969F938F930E942F040FB6F8947D
:1003A000DEBF0FBECDBF02C00E94A000CE010196ED
:1003B0000E944001C058DF4F0FB6F894DEBF0FBE59
:1003C000CDBFDF91CF9108950F931F93CF93DF930C
:1003D00000D000D0CDB7DEB78C018091B0019091F4
:1003E000B1019A8389838091AE019091AF019C8382
:1003F0008B8381E00E9415018EE291E00E94400112
:1004000042E050E0BE016F5F7F4F8AE391E00E94BF
:100410004D018DE491E00E9440018FE691E00E9441
:100420004001C8010E9440018DE791E00E94400117
:1004300089E891E00E94400180E00E9415010F9040
:100440000F900F900F90DF91CF911F910F91089512
:100450001F920F920FB60F9211242F933F934F9339
:100460005F936F937F938F939F93AF93BF93EF931C
:10047000FF9382E991E00E94E40180EC90E00E9409
:100480008500FF91EF91BF91AF919F918F917F91E7
:100490006F915F914F913F912F910F900FBE0F90F1
:1004A0001F9018957894E9E6F0E0808180838DB301
:1004B00081608DBB08950E9480020E947F006CE9DC
:1004C00071E089EA91E00E94A7000E945202E6EBE7
:1004D000F1E084E191E09383828386E091E091836F
:1004E000808380E690E00E94850083B7817F83BF90
:1004F00083B7816083BF889583B78E7F83BFF8CF32
:100500001092C50080E18093C400E0ECF0E08081AF
:100510008260808386E08093C20088E18093C1007E
:100520000895CF93C82F8A3019F48DE00E9491026C
:100530008091C00085FFFCCFC093C600CF91089585
:100540008091C0008823E4F78091C60008950F933E
:100550001F93CF93DF938230910510F482E090E0F7
:10056000E091B401F091B50120E030E0A0E0B0E00E
:10057000309719F140815181028113814817590741
:10058000C8F08417950769F4109731F012960C9310
:10059000129713961C9327C00093B4011093B501D2
:1005A00022C02115310519F04217530718F49A019A
:1005B000BD01EF01DF01F801DBCF21153105F9F0B5
:1005C000281B390B2430310580F48A819B81611509
:1005D000710521F0FB019383828304C09093B501E0
:1005E0008093B401FE01329644C0FE01E20FF31F76
:1005F0008193919322503109398328833AC0209105
:10060000B2013091B301232B41F4209102013091CA
:1006100003013093B3012093B20120910001309186
:1006200001012115310541F42DB73EB74091040178
:1006300050910501241B350BE091B201F091B301FB
:10064000E217F307A0F42E1B3F0B2817390778F0A9
:10065000AC014E5F5F4F2417350748F04E0F5F1F08
:100660005093B3014093B2018193919302C0E0E0B3
:10067000F0E0CF01DF91CF911F910F910895CF93BB
:10068000DF93009709F481C0FC0132971382128234
:10069000A091B401B091B501109781F4208131810E
:1006A000820F931F2091B2013091B30128173907AF
:1006B00051F5F093B301E093B20167C0ED0120E082
:1006C00030E0CE17DF0740F44A815B819E0141157F
:1006D0005105F1F0EA01F5CFD383C2834081518106
:1006E000840F951FC817D90759F488819981840F01
:1006F000951F0296918380838A819B819383828355
:100700002115310529F4F093B501E093B4013DC002
:10071000E901FB83EA8349915991C40FD51FEC1776
:10072000FD0761F480819181840F951F0296E90194
:1007300099838883828193819B838A83E0E0F0E0C0
:1007400012968D919C911397009719F0FD01DC0191
:10075000F7CF8D919C9111979D012E5F3F4F820F96
:10076000931F2091B2013091B3012817390769F422
:10077000309729F41092B5011092B40102C013828F
:100780001282B093B301A093B201DF91CF9108958B
:10079000FB01DC0101900D920020E1F70895FB01BF
:1007A00051915523A9F0BF01DC014D91451741112D
:1007B000E1F759F4CD010190002049F04D91401529
:1007C0004111C9F3FB014111EFCF81E090E00197A6
:1007D00008950F931F93CF93DF93E091B801F091A9
:1007E000B901238121FF1BC08C01D0E0C0E0F801DA
:1007F00081918F016091B8017091B901DB01189668
:10080000ED91FC911997882331F00995892B79F3A3
:10081000DFEFCFEFECCF8AE00995892B19F08FEF4E
:100820009FEF02C08D2F9C2FDF91CF911F910F91D1
:100830000895A0E0B0E0EFE1F4E00C940D0AAE0101
:100840004B5F5F4FFA0161917191AF018091B601E9
:100850009091B7010E94CE07E2E00C94290AAEE025
:10086000B0E0E5E3F4E00C940B0A0D891E8986E004
:100870008C831A8309838FEF9FE79E838D83AE015C
:10088000475E5F4F6F89788DCE0101960E945104BB
:10089000EF81F885E00FF11F10822E96E4E00C94B2
:1008A000270AABE0B0E0E7E5F4E00C94FD096C0149
:1008B0007B018A01FC0117821682838181FFCCC1F2
:1008C000CE0101963C01F6019381F70193FD8591DC
:1008D00093FF81917F01882309F4BAC1853239F4ED
:1008E00093FD859193FF81917F01853229F4B601B3
:1008F00090E00E944709E7CF912C212C312CFFE199
:10090000F315D8F08B3279F038F4803279F08332F5
:10091000A1F4232D20611DC08D3261F0803369F474
:10092000232D216016C0832D8260382EE32DE460D4
:100930003E2E2AC0F32DF8601DC037FC2DC020EDDF
:10094000280F2A3040F08E32B9F436FC81C1232DB5
:100950002064322E19C036FE06C08AE0989E200D13
:100960001124922E11C0EAE02E9E200D1124222E79
:10097000F32DF0623F2E08C08C3621F4832D806861
:10098000382E02C0883641F4F70193FD859193FF1C
:1009900081917F018111B3CF982F9F7D9554933022
:1009A00028F40C5F1F4F9FE399830DC0833631F00D
:1009B000833771F0833509F059C021C0F801808177
:1009C00089830E5F1F4F88248394912C530113C099
:1009D0002801F2E04F0E511CF801A080B18036FED4
:1009E00003C0692D70E002C06FEF7FEFC5010E9468
:1009F000FE084C018201F32DFF773F2E16C028011F
:100A000022E0420E511CF801A080B18036FE03C0E6
:100A1000692D70E002C06FEF7FEFC5010E94F308FF
:100A20004C01F32DF0683F2E820133FC1BC0822D58
:100A300090E088169906B0F4B60180E290E00E943A
:100A400047092A94F4CFF50137FC859137FE81914F
:100A50005F01B60190E00E94470921102A9421E02D
:100A6000821A91088114910471F7E8C0843611F05C
:100A7000893641F5F80137FE07C0608171818281B6
:100A800093810C5F1F4F08C060817181072E000C9D
:100A9000880B990B0E5F1F4FF32DFF763F2E97FFAC
:100AA00009C090958095709561957F4F8F4F9F4FAE
:100AB000F0683F2E2AE030E0A3010E949C09882EB6
:100AC000861845C0853731F4232D2F7EB22E2AE0BB
:100AD00030E025C0932D997FB92E8F36C1F018F4E0
:100AE000883579F0B5C0803719F0883721F0B0C06B
:100AF000E92FE061BE2EB4FE0DC0FB2DF460BF2EC9
:100B000009C034FE0AC0292F2660B22E06C028E094
:100B100030E005C020E130E002C020E132E0F80121
:100B2000B7FE07C060817181828193810C5F1F4F86
:100B300006C06081718180E090E00E5F1F4FA301CD
:100B40000E949C09882E8618FB2DFF773F2E36FECB
:100B50000DC0232D2E7FA22E891458F434FE0BC015
:100B600032FC09C0832D8E7EA82E05C0B82CA32C84
:100B700003C0B82C01C0B92CA4FE0FC0FE01E80DC3
:100B8000F11D8081803321F49A2D997EA92E09C010
:100B9000A2FE06C0B394B39404C08A2D867809F0EF
:100BA000B394A3FC11C0A0FE06C0B21488F4280CB4
:100BB000922C9B180EC0B21460F4B60180E290E053
:100BC0000E944709B394F7CFB21418F42B1802C04F
:100BD000982C212CA4FE10C0B60180E390E00E9466
:100BE0004709A2FE17C0A1FC03C088E790E002C03D
:100BF00088E590E0B6010CC08A2D867859F0A1FEF8
:100C000002C08BE201C080E2A7FC8DE2B60190E059
:100C10000E944709891438F4B60180E390E00E94ED
:100C200047099A94F7CF8A94F301E80DF11D80816A
:100C3000B60190E00E9447098110F5CF222009F407
:100C400042CEB60180E290E00E9447092A94F6CF96
:100C5000F6018681978102C08FEF9FEF2B96E2E12C
:100C60000C94190A20FD09C0FC0123FD05C022FFD8
:100C700002C07383628351834083089544FD17C08B
:100C800046FD17C0AB01BC01DA01FB01AA0FBB1F77
:100C9000EE1FFF1F1094D1F74A0F5B1F6E1F7F1FBF
:100CA000CB01BA01660F771F881F991F09C033E077
:100CB00001C034E0660F771F881F991F3150D1F7AC
:100CC000620F711D811D911D08950F931F93CF9386
:100CD000DF938C01C8010E940909EC0197FD08C04F
:100CE0000E94DF08892BB1F7B801CE010E94830969
:100CF000CE01DF91CF911F910F9108958F929F9216
:100D0000AF92BF92EF92FF920F931F93CF93DF9317
:100D10008C01D62F7A01B22E0E9409099C0133273B
:100D20002B32310531F02D32310561F48B2D806885
:100D3000B82ED15011F480E068C0C8010E940909A2
:100D400097FDF9CFCB2DCD7F2B2D207309F5803367
:100D5000F9F4AA24AA94AD0E09F443C0C8010E9474
:100D6000090997FD3EC09C012F7D332728353105A9
:100D700049F4C264D250A9F1C8010E94090997FF41
:100D800007C02FC0B6FE02C0C26001C0C261DA2D2A
:100D9000812C912C540120ED280F283080F0C4FFC5
:100DA00004C0B8010E94830919C02A3040F0C6FF70
:100DB000F8CF2F7D3FEE320F363098F727504C2F6B
:100DC000C501B4010E943E064B015C01C260D150D6
:100DD00059F0C8010E94090997FFDDCFC1FD04C089
:100DE000AACF812C912C5401C7FF08C0B094A094C5
:100DF00090948094811C911CA11CB11C2C2FB501D6
:100E0000A401C7010E94320681E0DF91CF911F91BA
:100E10000F91FF90EF90BF90AF909F908F900895AB
:100E2000A0E2B0E0E6E1F7E00C94000A5C01962E47
:100E30007A01F9018E010F5F1F4F680180E2D8012E
:100E40001D928A95E9F7D50113968C9080E090E089
:100E5000612C712C30E061E070E083FC259183FE11
:100E600021918F01522E211103C080E090E092C0A9
:100E70002E3511F4009751F1432F50E048175907D0
:100E80003CF42D3559F12D3219F4772009F103C0C6
:100E9000772009F46AC0452D469546954695D601BA
:100EA000A40FB11D452D47708B0102C0000F111F0B
:100EB0004A95E2F7A8015C91452B4C93651459F0D3
:100EC000561410F45394E7CF5A94E5CF31E004C0A0
:100ED0007724739401C0712C0196BFCF772019F04D
:100EE0008E8180628E83311103C08824839417C061
:100EF000F6019E012F5D3F4F8081809581932E17D3
:100F00003F07D1F7F2CFE114F10429F0D7018C9318
:100F1000F70131967F019A94812C9920F9F0C5014F
:100F20000E94090997FD18C0FC01FF2723E0F595F1
:100F3000E7952A95E1F7EC0DFD1D208130E0AC012D
:100F40004770552702C0359527954A95E2F720FD51
:100F5000DACFB5010E948309811087CFE114F10433
:100F600011F0D7011C92C80115C0422F4695469535
:100F70004695D601A40FB11D422F47708B0102C0C8
:100F8000000F111F4A95E2F7A8015C91452B4C9385
:100F9000622EA2CFA096EFE00C941C0AA0E0B0E075
:100FA000E4EDF7E00C94000A6C01EB015A01FC013E
:100FB00017821682512CF601E380FE01E3FC859135
:100FC000E3FE8191182FEF01882309F4EEC090E031
:100FD0000E94DF08892B21F0C6010E946506EBCF35
:100FE000153241F4FE01E3FC1591E3FE1191EF018E
:100FF000153281F4C6010E94090997FDD4C0412F22
:1010000050E09C01332724173507A9F2B6010E944E
:101010008309CBC01A3239F4E3FC1591E3FE119138
:10102000EF0101E001C000E0F12C20ED210F2A309A
:1010300080F402606F2D70E080E090E040E20E945A
:101040003E06F62EFE01E3FC1591E3FE1191EF0141
:10105000ECCF01FF03C0F11003C0A7C0FF24FA9436
:10106000183619F01C3651F010C0FE01E3FC159142
:10107000E3FE1191EF01183641F408600460FE01AF
:10108000E3FC1591E3FE1191EF01112309F48DC0EA
:10109000612F70E084EB90E00E94E808892B09F44E
:1010A00084C000FD07C0F50180809180C5010296D3
:1010B0005C0102C0812C912C1E3651F4F601468150
:1010C000578160E070E0202FC4010E94320673CF88
:1010D0001336A9F401FD02C0FF24F394C6010E9457
:1010E000090997FD60C08114910429F0F4018083FF
:1010F000C40101964C01FA94F110F0CF50C01B3599
:1011000059F49E01A4016F2DC6010E941007EC0145
:10111000892B09F044C03EC0C6010E94650697FDB8
:1011200042C01F3661F128F4143639F1193651F1F5
:1011300028C0133771F0153701F123C081149104D1
:1011400029F0F4016082C40101964C01FA94FF2059
:1011500071F0C6010E9409093C0197FD08C00E9478
:10116000DF08892B59F3B601C3010E94830981145A
:101170009104A9F0F401108212C0006203C0006162
:1011800001C00064202FA4016F2DC6010E947E06BD
:10119000811105C0F6018381807329F406C000FD2A
:1011A0000ACF539408CF552019F0852D90E002C046
:1011B0008FEF9FEFCDB7DEB7EFE00C941C0A9111D3
:1011C0000C94FA09803219F089508550C8F70895B7
:1011D000FC010590061621F00020D9F7C001089502
:1011E0003197CF010895FC010590615070400110C6
:1011F000D8F7809590958E0F9F1F0895FC01615040
:10120000704001900110D8F7809590958E0F9F1F28
:101210000895CF93DF93EC012B8120FF33C026FF8D
:101220000AC02F7B2B838E819F8101969F838E83A3
:101230008A8190E029C022FF0FC0E881F981808176
:10124000082E000C990B009719F420622B831AC00A
:101250003196F983E8830EC0EA85FB85099597FFEF
:1012600009C02B81019611F080E201C080E1822B40
:101270008B8308C02E813F812F5F3F4F3F832E839A
:10128000992702C08FEF9FEFDF91CF9108950F93C1
:101290001F93CF93DF93FB01238121FD03C08FEFC9
:1012A0009FEF2CC022FF16C04681578124813581D3
:1012B0004217530744F4A081B1819D012F5F3F4F36
:1012C000318320838C93268137812F5F3F4F378373
:1012D000268314C08B01EC01FB010084F185E02D15
:1012E0000995892BE1F6D80116968D919C91179757
:1012F000019617969C938E931697CE01DF91CF910E
:101300001F910F910895FB01238120FF12C026FD3C
:1013100010C08F3F3FEF930761F082832F7D2064E1
:1013200023832681378121503109378326839927EA
:1013300008958FEF9FEF0895FA01AA27283051F101
:10134000203181F1E8946F936E7F6E5F7F4F8F4FF6
:101350009F4FAF4FB1E03ED0B4E03CD0670F781F55
:10136000891F9A1FA11D680F791F8A1F911DA11D3A
:101370006A0F711D811D911DA11D20D009F4689473
:101380003F912AE0269F11243019305D3193DEF61B
:10139000CF010895462F4770405D4193B3E00FD0D1
:1013A000C9F7F6CF462F4F70405D4A3318F0495DBC
:1013B00031FD4052419302D0A9F7EACFB4E0A6959F
:1013C0009795879577956795BA95C9F700976105C1
:1013D000710508959B01AC010A2E06945795479517
:1013E00037952795BA95C9F7620F731F841F951F0C
:1013F000A01D08959927882708952F923F924F9214
:101400005F926F927F928F929F92AF92BF92CF9294
:10141000DF92EF92FF920F931F93CF93DF93CDB79D
:10142000DEB7CA1BDB0B0FB6F894DEBF0FBECDBF15
:1014300009942A88398848885F846E847D848C84E6
:101440009B84AA84B984C884DF80EE80FD800C81EF
:101450001B81AA81B981CE0FD11D0FB6F894DEBFD2
:0C1460000FBECDBFED010895F894FFCF42
:10146C000000BC0120000000000100000000000092
:10147C00A002000000000002000000009102000029
:10148C0000002573004552524F52004F4B004154FF
:10149C002B43574D4F44453D330041542B43574A42
:1014AC0041503D222573222C222573220041542BBE
:1014BC0043495053544152543D22544350222C2200
:1014CC0031302E302E302E313034222C353000413C
:1014DC00542B43495053454E443D31300041542B1D
:1014EC00434950434C4F53450041542B43575141B2
:1014FC005000244C41554E4452590A00676F746594
:0E150C007270735F33313431004C4453000071
:00000001FF
